:020000040C00EE
:100000000088FE1F010200089902000899020008FA
:1000100099020008990200089902000800000000F7
:10002000000000000000000000000000990200082D
:10003000990200080000000099020008F110000871
:100040009902000899020008990200089902000824
:100050009902000899020008990200089902000814
:1000600099020008000000000000000000000000ED
:100070009902000800000000990200089902000897
:1000800099020008990200089902000899020008E4
:1000900099020008990200089902000899020008D4
:1000A00099020008990200089902000899020008C4
:1000B00099020008990200089902000899020008B4
:1000C00099020008990200089902000899020008A4
:1000D0009902000899020008990200089902000894
:1000E0009902000899020008990200089902000884
:1000F0009902000899020008990200089902000874
:100100009902000899020008990200089902000863
:100110009902000899020008990200089902000853
:100120009902000899020008990200089902000843
:100130009902000899020008990200089902000833
:100140009902000899020008990200089902000823
:100150009902000899020008990200089902000813
:10016000000000000000000000000000000000008F
:1001700099020008990200089902000899020008F3
:1001800099020008990200089902000899020008E3
:1001900099020008990200089902000899020008D3
:1001A00099020008990200089902000899020008C3
:1001B00099020008990200089902000899020008B3
:1001C00099020008990200089902000899020008A3
:1001D0009902000899020008990200080000000036
:1001E0009902000899020008990200089902000883
:1001F00099020008000000009902000800000000B9
:10020000DFF874D01D4880471D4C1E4DAC4209DA02
:1002100021686268A368043BA2BFC858D050FAE7BF
:100220000C34F3E7184B194CA34208DA19685A68E2
:100230000020043AA4BF8850FBE70833F4E71448D1
:1002400080471448804700006817000C0088FE1F94
:10025000000000006817000C0088FE1F000000006E
:100260000088FE1F40010000000000200000000088
:1002700000000020000000000088FE1F9D02000812
:1002800048020008600200086002000878020008C6
:10029000F5160008D9150008FEE7000098B500AF74
:1002A000054A4FF0005314460FCB84E80F0001F0CD
:1002B0009FF801F0FDF898BDC4FF032080B584B01D
:1002C00000AF2F4BDB6803F48033002B3ED02D4B67
:1002D000DB6803F00103002B02D02B4BFB6002E034
:1002E00000F056F8F860274B1B6803F00403002B5E
:1002F00020D0244B9B6803F070631B0E0133BB605E
:10030000204B9B6803F4FE431B0A01337B601D4BAB
:100310009B6803F4FE031B0C01333B60BB683A6827
:1003200002FB03F3FA68B2FBF3F37A6802FB03F310
:10033000FB600DE0134B9B6803F07F0301333B60D0
:10034000FA683B68B2FBF3F3FB6001E00E4BFB6025
:100350000B4BDB68DBB20133FA68B2FBF3F3FB60F3
:10036000074B1B6903F001030133FA68B2FBF3F397
:10037000FB60064AFB6813601037BD4680BD00BFB6
:10038000004600501047005000366E01C0FF0320A9
:1003900080B400AF024B1846BD465DF8047B704741
:1003A000001BB70080B485B000AFF8600B467A60E0
:1003B000FB72FB7A9B08DBB21846FB7A9B08DBB228
:1003C0001A46FB68043253F82220FB7A03F0030339
:1003D000DB001946F8238B40DB4302EA0301FB688C
:1003E000021D43F82210FB685A6FFB7A5B00194626
:1003F00003238B40DB431A40FB685A67FB683A4A89
:10040000934203D0FB68394A93420AD1FB681A6EC3
:10041000FB7A012101FA03F3DB431A40FB681A66F9
:1004200042E07B681B78DBB25BB2002B3CDA7B6876
:100430005A68FB7A9A40FB685A60FB7ADB08DBB2A9
:100440001846FB7ADB08DBB21A46FB68103253F819
:100450002220FB7A03F007039B00194607238B40F9
:10046000DB4302EA0301FB6800F1100243F82210AB
:10047000FB7ADB08DBB21846FB7ADB08DBB21A46F4
:10048000FB68103253F822207B681B7A1946FB7AEE
:1004900003F007039B0001FA03F342EA0301FB6840
:1004A00000F1100243F82210FB7A9B08DBB21846D9
:1004B000FB7A9B08DBB21A46FB68043253F8222011
:1004C0007B681B781946FB7A03F00303DB0001FA13
:1004D00003F342EA0301FB68021D43F822101437BC
:1004E000BD465DF8047B7047008E0248008F0248CD
:1004F00080B400AF034BD3F8C4301846BD465DF856
:10050000047B70470040005080B584B000AF786035
:10051000FFF7D4FE0B4B1B680B4AA2FB03239A0C7C
:100520007B6802FB03F37B600023FB6003E000BFFA
:10053000FB680133FB60FA687B689A42F7D3103797
:10054000BD4680BDC0FF032083DE1B4380B400AFE7
:10055000034B5B681846BD465DF8047B704700BFDF
:100560007440005080B483B000AF7860034A7B6869
:10057000D3600C37BD465DF8047B70477440005073
:10058000B0B584B002AF7860002000F075F800F0DC
:1005900095F97B68DB79002B0AD000F0CDF900BF1C
:1005A00000F0B8F9034683F00103DBB2002BF7D16A
:1005B0007B685B7A184600F0C5F800BFFFF798FF2C
:1005C0000346002BFAD17B681B7A184600F050F9DD
:1005D0007B681B7C184600F0D3F87B685B7C184670
:1005E00000F0F6F87B689B7C184600F0DDF87B682D
:1005F000DB7C184600F000F97B689B79002B0AD061
:1006000000F0D2F900BF00F0F7F9034683F00103D0
:10061000DBB2002BF7D17B68DB78002B09D17B683C
:100620009B7983F00103DBB2002B17D000F008FAAE
:1006300014E000F0F5F97B6899887B68DA787B68CC
:100640005B781D467B681B781C467B689B78009313
:10065000084611462A46234600F002FA7B68DB680A
:10066000B3F5803F03D14FF4803000F005F8FFF779
:1006700025FE0837BD46B0BD80B483B000AF7860BA
:100680000649064BDB6823F480327B681343CB605A
:100690000C37BD465DF8047B704700BF0046005034
:1006A00080B483B000AF78600649064B5B6A23F4E0
:1006B00040327B6813434B620C37BD465DF8047BC8
:1006C000704700BF0046005080B483B000AF0346BF
:1006D000FB80FB88002B08D10A4A0A4BDB6823F415
:1006E000807323F00103D36007E0064A054BDB6803
:1006F00043F4807343F00103D3600C37BD465DF8CB
:10070000047B70471047005080B483B000AF0346AD
:10071000FB7100BF094BD3F8C43003F00803002B72
:10072000F8D10749064BDB6823F04002FB791343FD
:10073000CB600C37BD465DF8047B7047004000502D
:100740000043005080B483B000AF0346FB7100BF8C
:10075000094BD3F8C43003F00803002BF8D1074944
:10076000064BDB6823F08002FB791343CB600C3728
:10077000BD465DF8047B70470040005000430050C8
:1007800080B483B000AF78600649064BDB6823F085
:10079000FF027B68013B1343CB600C37BD465DF81D
:1007A000047B70470046005080B483B000AF78608F
:1007B0000649064B1B6A23F001027B68013B134389
:1007C0000B620C37BD465DF8047B70470046005055
:1007D00080B483B000AF78600649064B1B6923F0F4
:1007E00001027B68013B13430B610C37BD465DF88A
:1007F000047B70470046005080B483B000AF78603F
:100800000649064B5B6923F001027B68013B1343F9
:100810004B610C37BD465DF8047B704700460050C5
:1008200080B483B000AF78600649064BDB6923F0E3
:100830003F027B68013B1343CB610C37BD465DF83B
:10084000047B70470046005080B483B000AF7860EE
:100850000649064B5B6A23F0FF027B68013B1343AA
:100860004B620C37BD465DF8047B70470046005074
:1008700080B582B000AF0346FB710F4A0E4B5B6838
:1008800043F480135360FB79012B0ED10A4A0A4BC3
:100890005B6823F4801353606420FFF735FE064A3B
:1008A000054B5B6843F4002353606420FFF72CFE84
:1008B0000837BD4680BD00BF1047005080B400AF70
:1008C000124B1B6803F00103002B09D10F4B0122CF
:1008D0005A6000BF0D4B1B6803F00103002BF9D0D9
:1008E0000B4B1B6803F40073002B0AD0084B4FF42A
:1008F00000729A6000BF064B1B6803F40073002B64
:10090000F9D1BD465DF8047B704700BF004200503E
:100910000044005080B400AF064B1B6803F008038E
:10092000002B0CBF01230023DBB21846BD465DF847
:10093000047B70470043005080B500AF4FF40000C7
:10094000FFF710FE174A174BDB6923F03003D36122
:1009500000BFFFF7FBFD034603F40003002BF8D0B4
:100960004FF40030FFF7FEFD0E4B08225A6000BF27
:10097000FFF7ECFD034603F40033002BF8D04FF4EF
:100980000020FFF7EFFD074A064BDB6843F0080342
:10099000D36000BFFFF7DAFD034603F40023002B0A
:1009A000F8D080BD00430050B0B500AF0F4A0F4BE8
:1009B0005B6823F4803353600D4D0D4B5B6823F46B
:1009C000702424F03004FFF7E3FC0246094BA3FB3C
:1009D00002231B0D013B1B0423436B60034A034BA3
:1009E0005B6823F400335360B0BD00BF1047005074
:1009F000004700506BCA5F6B80B400AF074B1B68A9
:100A000003F46073B3F5607F0CBF01230023DBB2F6
:100A10001846BD465DF8047B704700BF1047005084
:100A200080B400AF054A054B5B6823F4803323F0A4
:100A300002035360BD465DF8047B704710470050C9
:100A400080B400AF054A054B5B6843F4803343F044
:100A500002035360BD465DF8047B704710470050A9
:100A600080B586B000AFBA607B600346FB810B4661
:100A70007B73FB891846FFF727FE7B7B012B40F039
:100A80008B80FB89002B09D1FFF782FC0246544B77
:100A9000A3FB02239B0C9B057B6102E04FF0C0632C
:100AA0007B617B697A6802FB03F2BB68B2FBF3F3FC
:100AB0007B617B694B4AA2FB03231B099B0D3B61B6
:100AC000494A494B5B6843F00103536000BF464B02
:100AD0001B6803F00103002BF9D0434A424B5B68CB
:100AE00043F01003536040493F4B9A683F4B13401B
:100AF0007A68013A12021A433B69013B1B041A430C
:100B0000BB68013B1B0613438B60374A364B5B685F
:100B100043F040035360344A334B5B6823F01003C7
:100B20005360314A304B5B6843F48023536000BF0D
:100B30002D4B1B6803F00403002BF9D02A4A2A4BE3
:100B40005B6823F00103536000BF274B1B6803F071
:100B50000103002BF9D17B69254AA2FB03235B0922
:100B60009B0D3B613A6A3B699A4202D2386900F0B8
:100B700045F87B695B081F4AA2FB03235B099B0DB9
:100B80003B613A6A3B699A4202D2386900F036F812
:100B9000386A00F033F81CE01349134B9B6823F0CC
:100BA0007F023B6A013B13438B6000BF0E4B1B6807
:100BB00003F01003002BF9D00B4A0B4B5B6843F09A
:100BC0000103536000BF084B1B6803F00103002BB7
:100BD000F9D0094B0522DA601837BD4680BD00BF49
:100BE00083DE1B43ABAAAAAA10470050FF8080F007
:100BF00089888888B7600BB66041005080B582B0A4
:100C000000AF78600B490B4B9B6823F4FE027B68B6
:100C1000013B1B0413438B6000BF064B1B6803F0B2
:100C20002003002BF9D03220FFF76EFC0837BD46B9
:100C300080BD00BF1047005080B483B000AF786023
:100C40000B46FB701346BB707B685A6FFB785B00EA
:100C5000194603238B40DB431A407B685A677B6845
:100C60005A6FBB78F97849008B401A437B685A6702
:100C70000C37BD465DF8047B704700BF80B400AF01
:100C8000BD465DF8047B704780B400AF044BDB6861
:100C900003F4E0631B0A1846BD465DF8047B704709
:100CA00000ED00E080B483B000AF03463960FB7113
:100CB00097F90730002B0ADB0D4997F907303A689E
:100CC000D2B29200D2B20B4483F800230AE0094961
:100CD000FB7903F00F03043B3A68D2B29200D2B220
:100CE0000B441A760C37BD465DF8047B704700BF95
:100CF00000E100E000ED00E080B489B000AFF860F2
:100D0000B9607A60FB6803F00703FB61FB69C3F11C
:100D10000703062B28BF0623BB61FB690633062B9E
:100D200002D9FB69013B00E000237B61BB69012222
:100D300002FA03F35A1EBB681A407B699A407B692A
:100D4000012101FA03F3591E7B680B401343184637
:100D50002437BD465DF8047B704700BF80B582B084
:100D600000AF78607B68013BB3F1807F01D3012342
:100D70000FE00A4A7B68013B53604FF0FF303F2190
:100D8000FFF790FF054B00229A60044B07221A6080
:100D9000002318460837BD4680BD00BF10E000E0C4
:100DA00090B486B000AF78600023FB736B497A681B
:100DB0001346DB0013449B000B4418331B68BB60D5
:100DC000674B1B68002B09D17A681346DB0013447C
:100DD0009B00624A1344624A1360BBE0604B1B688D
:100DE0007B61BB683B61ABE07B699B691A463B69F1
:100DF0009B1A3B613B69002B7ADC7B695B68002BAB
:100E000026D07B6959687A681346DB0013449B003F
:100E1000524A13440B607B69596850487A681346FC
:100E2000DB0013449B00034459604C497A68134625
:100E3000DB0013449B000B447A691A607A681346FE
:100E4000DB0013449B00454A1A447B695A601CE04E
:100E5000434B196841487A681346DB0013449B00F2
:100E6000034419603E4B19687A681346DB0013444B
:100E70009B003A4A13444B607A681346DB001344E4
:100E80009B00364A1344364A136034497A68134645
:100E9000DB0013449B000B441B689A693B69D11823
:100EA0002E487A681346DB0013449B000344183332
:100EB00019602A497A681346DB0013449B000B44EF
:100EC000196826487A681346DB0013449B000344E4
:100ED0001B689869214C7A681346DB0013449B0019
:100EE000234418331B68C31A8B610123FB7324E06E
:100EF0003B69002B21DD7B691B68002B1DD1174945
:100F00007A681346DB0013449B000B447A695A60ED
:100F10007A681346DB0013449B00104A1A447B692D
:100F20001A6039690D487A681346DB0013449B0048
:100F30000344183319600123FB737B691B687B61D1
:100F40007B69002B06D0FB7B83F00103DBB2002B17
:100F50007FF44AAF1837BD4690BC70471488FE1F17
:100F60000088FE1F80B485B000AF78607A681346B1
:100F7000DB0013449B00294A1344FB60FB685B6859
:100F8000002B07D1FB681B68002B03D1244B0022E8
:100F90001A603DE0FB685B68002B14D1FB681B689E
:100FA0001F4A13601E4B1B6800225A601C4B1B68B3
:100FB0001B4A12689169FA6892690A449A61FB684F
:100FC00000221A6024E0FB681B68002B07D1FB6835
:100FD0005B6800221A60FB6800225A6018E0FB6818
:100FE0005B68FA6812681A60FB681B68FA685268E6
:100FF0005A60FB681B68FA6812689169FA6892691E
:101000000A449A61FB6800221A60FB6800225A6059
:101010001437BD465DF8047B704700BF1488FE1F7F
:101020000088FE1F80B582B000AF2F4B1B687B602D
:1010300050E07B6893F82030002B13D07B685B690D
:101040001846FFF78FFF7B6800225A737B685B6945
:101050001A4601239340DA43244B1B681340234A6A
:10106000136034E07B681B7B002B12D17B685B7BB9
:10107000012B2CD17B685B691846FFF773FF7B68F7
:1010800002225A737B689B687A68126910469847F7
:101090001DE07B681B7B012B18D17B685B7B012BE0
:1010A00015D17B685B691846FFF75CFF7B68DA69DE
:1010B0007B689A617B685B691846FFF771FE7B6805
:1010C0009B687A6812691046984700E009E0064B71
:1010D0001B687B607B68002B03D07B689B69002BBF
:1010E000A7D00837BD4680BD0088FE1F0488FE1FBC
:1010F00080B582B000AF0E4B1B687B600D4B1B6848
:1011000001330C4A13607B68002B0ED07B689B690F
:10111000012B05D97B689B695A1E7B689A6104E0A4
:101120007B6800229A61FFF77DFF0837BD4680BDCE
:101130000088FE1F0888FE1F80B584B000AF78606D
:101140000023FB737B681B7883F00103DBB2002B69
:1011500020D0134B00221A601248FFF7FFFD034610
:10116000FB73FB7B012B15D0FFF78EFD0346184662
:101170003F210022FFF7C0FD03464FF0FF30194624
:10118000FFF790FD084B00221A607B6801221A705D
:101190000023FB73FB7B18461037BD4680BD00BFA4
:1011A0000088FE1F803202000488FE1F80B489B0D0
:1011B00000AFF8607A603B600B46FB720023FB6176
:1011C0000023BB6100237B61FB68B3F57A7F02D209
:1011D0000023FB617BE00023BB6175E0BB6901225A
:1011E0009A403E4B1B681340002B6AD1BB69012219
:1011F0009A403A4B1B681343384A13603849BA691E
:101200001346DB0013449B000B441033BA695A6049
:101210003349BA691346DB0013449B000B4408337F
:10122000FA7A1A712E49BA691346DB0013449B00FF
:101230000B44083302225A71FB682A4AA2FB03239B
:101240009B097B617B69591C2548BA691346DB0001
:1012500013449B000344183319602149BA691346AB
:10126000DB0013449B000B4418337A695A601C4915
:10127000BA691346DB0013449B000B4408337A68B9
:101280001A601749BA691346DB0013449B000B44EC
:1012900010333A681A601249BA691346DB001344E6
:1012A0009B000B4400225A600D49BA691346DB00CB
:1012B00013449B000B4400221A60BB690133FB619D
:1012C00005E0BB690133BB61BB69072B86D9FB69AC
:1012D00018462437BD465DF8047B70470488FE1F1E
:1012E0001488FE1FD34D621080B584B000AF7860C3
:1012F0000123FB737B685A1E1A491346DB00134413
:101300009B000B4408335B79022B26D17B685A1E65
:101310007B68591E13480B46DB000B449B000344BB
:1013200018335B68591C0F481346DB0013449B00BD
:101330000344183319607B685A1E0A491346DB00C0
:1013400013449B000B44083301225A717B68013B14
:101350001846FFF725FD0023FB73FB7B184610376B
:10136000BD4680BD1488FE1F80B582B000AF786096
:101370007B6819687B681A7C7B68043308461146D1
:101380001A46FFF70FF87B6819687B681A7C7B6840
:101390005B7C084611461A46FFF74EFC00231846B0
:1013A0000837BD4680BD00BF80B485B000AF78600F
:1013B0007B6803F00703FB600C4BDB68BB60BA681B
:1013C0004FF6FF031340BB60FB681A02BB68134370
:1013D00043F0BF6343F40033BB60044ABB68D3608F
:1013E0001437BD465DF8047B704700BF00ED00E098
:1013F00080B582B000AF0120FFF7D6FF72B6214B57
:10140000214A9A60BFF34F8F62B61E4A1D4BD3F834
:10141000883043F47003C2F888301C4B03F58053C6
:1014200014331B687B607B6823F00F037B607B6851
:1014300043F004037B60154B03F5805314337A6843
:101440001A60104A0F4B5B6923F0100353610D4A79
:101450000C4B5B6923F0080353610A4A094B5B6A32
:1014600023F480335362074A064B5B6A23F400334C
:101470005362044A034B5B6A23F4802353620837A8
:10148000BD4680BD00ED00E00000000800100058DF
:1014900080B485B000AF78600023FB737B680122C5
:1014A0001A70FB7B18461437BD465DF8047B704705
:1014B000B0B586B000AF0D4B3C1D1D460FCD0FC41F
:1014C0002B6823603B1D1846FFF75AF80020FFF7F2
:1014D0001BF90020FFF7E4F80120FFF7B5F9012020
:1014E000FFF79EF91837BD46B0BD00BF541700087E
:1014F00080B582B000AF0023FB710D48FFF7C8FF35
:101500000346FB71FB79002B04D10A48FFF714FE58
:101510000346FB71FB79002B04D10748FFF724FF3A
:101520000346FB71FB7918460837BD4680BD00BFF6
:101530001088FE1F0C88FE1F4017000880B483B07F
:1015400000AF78600B46FB707B685A6AFB7822FA22
:1015500003F303F0010318460C37BD465DF8047B26
:10156000704700BF80B582B000AF78607B681A68B2
:101570007B681B7C10461946FFF7E0FF03461846C0
:101580000837BD4680BD00BF80B400AF0F4B1B685D
:10159000002B04DD0D4B1B68013B0C4A13600C4B08
:1015A0001B68002B04DD0A4B1B68013B084A1360D3
:1015B000084B1B68002B04DD064B1B68013B054AEA
:1015C0001360BD465DF8047B704700BF3889FE1F7D
:1015D0003489FE1F3C89FE1F80B58CB000AFFFF739
:1015E00087FF034687F82F3097F82F30002B00D065
:1015F000FEE74FF47A700121394A0023FFF7D6FD48
:101600000346BB62BB6A1846FFF76EFE07F1140380
:1016100000221A60043300221A60043300221A6088
:10162000043300221A60043300221A6004332D4B65
:101630007B6180233B764FF48033FB61092387F87D
:101640002430796997F8242007F1140304330846FD
:1016500011461A46FEF7A6FE3B4600221A600433E6
:1016600000221A60043300221A60043300221A6038
:10167000043300221A6004331A4B3B6080233B7111
:101680004FF48033BB6008233B7439683A7C3B4697
:101690000433084611461A46FEF784FE124B1B68B7
:1016A000002B08D1104B78221A600E4A0D4B1B6894
:1016B00083F4807313600D4B1B68002B0ED10C4814
:1016C000FFF750FF0346002B08D0084BB4221A60E6
:1016D000044A044B1B6883F400731360DEE700BF09
:1016E00089150008008502483489FE1F3C89FE1FC9
:1016F0004017000870B50E4B0E4CE41AA4100025DC
:101700001E46A54204D056F8253098470135F8E723
:10171000FFF7B4FA084C094BE41AA41000251E4642
:10172000A54204D056F8253098470135F8E770BD3A
:101730000088FE1F0088FE1F0088FE1F0088FE1F15
:10174000008F0248000000000000000000000000C0
:101750000D0000001802010101010000000000005E
:0817600000000100020101017B
:0400000508000201EC
:00000001FF
